{
  "_format": "hh-sol-artifact-1",
  "contractName": "cypert",
  "sourceName": "contracts/AiToken.sol",
  "abi": [
    {
      "inputs": [
        {
          "internalType": "address",
          "name": "_owner",
          "type": "address"
        }
      ],
      "stateMutability": "nonpayable",
      "type": "constructor"
    },
    {
      "inputs": [],
      "name": "CheckpointUnorderedInsertion",
      "type": "error"
    },
    {
      "inputs": [],
      "name": "ECDSAInvalidSignature",
      "type": "error"
    },
    {
      "inputs": [
        {
          "internalType": "uint256",
          "name": "length",
          "type": "uint256"
        }
      ],
      "name": "ECDSAInvalidSignatureLength",
      "type": "error"
    },
    {
      "inputs": [
        {
          "internalType": "bytes32",
          "name": "s",
          "type": "bytes32"
        }
      ],
      "name": "ECDSAInvalidSignatureS",
      "type": "error"
    },
    {
      "inputs": [
        {
          "internalType": "uint256",
          "name": "increasedSupply",
          "type": "uint256"
        },
        {
          "internalType": "uint256",
          "name": "cap",
          "type": "uint256"
        }
      ],
      "name": "ERC20ExceededSafeSupply",
      "type": "error"
    },
    {
      "inputs": [
        {
          "internalType": "address",
          "name": "spender",
          "type": "address"
        },
        {
          "internalType": "uint256",
          "name": "allowance",
          "type": "uint256"
        },
        {
          "internalType": "uint256",
          "name": "needed",
          "type": "uint256"
        }
      ],
      "name": "ERC20InsufficientAllowance",
      "type": "error"
    },
    {
      "inputs": [
        {
          "internalType": "address",
          "name": "sender",
          "type": "address"
        },
        {
          "internalType": "uint256",
          "name": "balance",
          "type": "uint256"
        },
        {
          "internalType": "uint256",
          "name": "needed",
          "type": "uint256"
        }
      ],
      "name": "ERC20InsufficientBalance",
      "type": "error"
    },
    {
      "inputs": [
        {
          "internalType": "address",
          "name": "approver",
          "type": "address"
        }
      ],
      "name": "ERC20InvalidApprover",
      "type": "error"
    },
    {
      "inputs": [
        {
          "internalType": "address",
          "name": "receiver",
          "type": "address"
        }
      ],
      "name": "ERC20InvalidReceiver",
      "type": "error"
    },
    {
      "inputs": [
        {
          "internalType": "address",
          "name": "sender",
          "type": "address"
        }
      ],
      "name": "ERC20InvalidSender",
      "type": "error"
    },
    {
      "inputs": [
        {
          "internalType": "address",
          "name": "spender",
          "type": "address"
        }
      ],
      "name": "ERC20InvalidSpender",
      "type": "error"
    },
    {
      "inputs": [
        {
          "internalType": "uint256",
          "name": "deadline",
          "type": "uint256"
        }
      ],
      "name": "ERC2612ExpiredSignature",
      "type": "error"
    },
    {
      "inputs": [
        {
          "internalType": "address",
          "name": "signer",
          "type": "address"
        },
        {
          "internalType": "address",
          "name": "owner",
          "type": "address"
        }
      ],
      "name": "ERC2612InvalidSigner",
      "type": "error"
    },
    {
      "inputs": [
        {
          "internalType": "uint256",
          "name": "maxLoan",
          "type": "uint256"
        }
      ],
      "name": "ERC3156ExceededMaxLoan",
      "type": "error"
    },
    {
      "inputs": [
        {
          "internalType": "address",
          "name": "receiver",
          "type": "address"
        }
      ],
      "name": "ERC3156InvalidReceiver",
      "type": "error"
    },
    {
      "inputs": [
        {
          "internalType": "address",
          "name": "token",
          "type": "address"
        }
      ],
      "name": "ERC3156UnsupportedToken",
      "type": "error"
    },
    {
      "inputs": [
        {
          "internalType": "uint256",
          "name": "timepoint",
          "type": "uint256"
        },
        {
          "internalType": "uint48",
          "name": "clock",
          "type": "uint48"
        }
      ],
      "name": "ERC5805FutureLookup",
      "type": "error"
    },
    {
      "inputs": [],
      "name": "ERC6372InconsistentClock",
      "type": "error"
    },
    {
      "inputs": [],
      "name": "EnforcedPause",
      "type": "error"
    },
    {
      "inputs": [],
      "name": "ExpectedPause",
      "type": "error"
    },
    {
      "inputs": [
        {
          "internalType": "address",
          "name": "account",
          "type": "address"
        },
        {
          "internalType": "uint256",
          "name": "currentNonce",
          "type": "uint256"
        }
      ],
      "name": "InvalidAccountNonce",
      "type": "error"
    },
    {
      "inputs": [],
      "name": "InvalidShortString",
      "type": "error"
    },
    {
      "inputs": [
        {
          "internalType": "address",
          "name": "owner",
          "type": "address"
        }
      ],
      "name": "OwnableInvalidOwner",
      "type": "error"
    },
    {
      "inputs": [
        {
          "internalType": "address",
          "name": "account",
          "type": "address"
        }
      ],
      "name": "OwnableUnauthorizedAccount",
      "type": "error"
    },
    {
      "inputs": [
        {
          "internalType": "uint8",
          "name": "bits",
          "type": "uint8"
        },
        {
          "internalType": "uint256",
          "name": "value",
          "type": "uint256"
        }
      ],
      "name": "SafeCastOverflowedUintDowncast",
      "type": "error"
    },
    {
      "inputs": [
        {
          "internalType": "string",
          "name": "str",
          "type": "string"
        }
      ],
      "name": "StringTooLong",
      "type": "error"
    },
    {
      "inputs": [
        {
          "internalType": "uint256",
          "name": "expiry",
          "type": "uint256"
        }
      ],
      "name": "VotesExpiredSignature",
      "type": "error"
    },
    {
      "anonymous": false,
      "inputs": [
        {
          "indexed": true,
          "internalType": "address",
          "name": "owner",
          "type": "address"
        },
        {
          "indexed": true,
          "internalType": "address",
          "name": "spender",
          "type": "address"
        },
        {
          "indexed": false,
          "internalType": "uint256",
          "name": "value",
          "type": "uint256"
        }
      ],
      "name": "Approval",
      "type": "event"
    },
    {
      "anonymous": false,
      "inputs": [
        {
          "indexed": true,
          "internalType": "address",
          "name": "delegator",
          "type": "address"
        },
        {
          "indexed": true,
          "internalType": "address",
          "name": "fromDelegate",
          "type": "address"
        },
        {
          "indexed": true,
          "internalType": "address",
          "name": "toDelegate",
          "type": "address"
        }
      ],
      "name": "DelegateChanged",
      "type": "event"
    },
    {
      "anonymous": false,
      "inputs": [
        {
          "indexed": true,
          "internalType": "address",
          "name": "delegate",
          "type": "address"
        },
        {
          "indexed": false,
          "internalType": "uint256",
          "name": "previousVotes",
          "type": "uint256"
        },
        {
          "indexed": false,
          "internalType": "uint256",
          "name": "newVotes",
          "type": "uint256"
        }
      ],
      "name": "DelegateVotesChanged",
      "type": "event"
    },
    {
      "anonymous": false,
      "inputs": [],
      "name": "EIP712DomainChanged",
      "type": "event"
    },
    {
      "anonymous": false,
      "inputs": [
        {
          "indexed": true,
          "internalType": "address",
          "name": "previousOwner",
          "type": "address"
        },
        {
          "indexed": true,
          "internalType": "address",
          "name": "newOwner",
          "type": "address"
        }
      ],
      "name": "OwnershipTransferred",
      "type": "event"
    },
    {
      "anonymous": false,
      "inputs": [
        {
          "indexed": false,
          "internalType": "address",
          "name": "account",
          "type": "address"
        }
      ],
      "name": "Paused",
      "type": "event"
    },
    {
      "anonymous": false,
      "inputs": [
        {
          "indexed": true,
          "internalType": "address",
          "name": "from",
          "type": "address"
        },
        {
          "indexed": true,
          "internalType": "address",
          "name": "to",
          "type": "address"
        },
        {
          "indexed": false,
          "internalType": "uint256",
          "name": "value",
          "type": "uint256"
        }
      ],
      "name": "Transfer",
      "type": "event"
    },
    {
      "anonymous": false,
      "inputs": [
        {
          "indexed": false,
          "internalType": "address",
          "name": "account",
          "type": "address"
        }
      ],
      "name": "Unpaused",
      "type": "event"
    },
    {
      "inputs": [],
      "name": "CLOCK_MODE",
      "outputs": [
        {
          "internalType": "string",
          "name": "",
          "type": "string"
        }
      ],
      "stateMutability": "view",
      "type": "function"
    },
    {
      "inputs": [],
      "name": "DOMAIN_SEPARATOR",
      "outputs": [
        {
          "internalType": "bytes32",
          "name": "",
          "type": "bytes32"
        }
      ],
      "stateMutability": "view",
      "type": "function"
    },
    {
      "inputs": [
        {
          "internalType": "address",
          "name": "owner",
          "type": "address"
        },
        {
          "internalType": "address",
          "name": "spender",
          "type": "address"
        }
      ],
      "name": "allowance",
      "outputs": [
        {
          "internalType": "uint256",
          "name": "",
          "type": "uint256"
        }
      ],
      "stateMutability": "view",
      "type": "function"
    },
    {
      "inputs": [
        {
          "internalType": "address",
          "name": "spender",
          "type": "address"
        },
        {
          "internalType": "uint256",
          "name": "value",
          "type": "uint256"
        }
      ],
      "name": "approve",
      "outputs": [
        {
          "internalType": "bool",
          "name": "",
          "type": "bool"
        }
      ],
      "stateMutability": "nonpayable",
      "type": "function"
    },
    {
      "inputs": [
        {
          "internalType": "address",
          "name": "account",
          "type": "address"
        }
      ],
      "name": "balanceOf",
      "outputs": [
        {
          "internalType": "uint256",
          "name": "",
          "type": "uint256"
        }
      ],
      "stateMutability": "view",
      "type": "function"
    },
    {
      "inputs": [
        {
          "internalType": "uint256",
          "name": "value",
          "type": "uint256"
        }
      ],
      "name": "burn",
      "outputs": [],
      "stateMutability": "nonpayable",
      "type": "function"
    },
    {
      "inputs": [
        {
          "internalType": "address",
          "name": "account",
          "type": "address"
        },
        {
          "internalType": "uint256",
          "name": "value",
          "type": "uint256"
        }
      ],
      "name": "burnFrom",
      "outputs": [],
      "stateMutability": "nonpayable",
      "type": "function"
    },
    {
      "inputs": [
        {
          "internalType": "address",
          "name": "account",
          "type": "address"
        },
        {
          "internalType": "uint32",
          "name": "pos",
          "type": "uint32"
        }
      ],
      "name": "checkpoints",
      "outputs": [
        {
          "components": [
            {
              "internalType": "uint48",
              "name": "_key",
              "type": "uint48"
            },
            {
              "internalType": "uint208",
              "name": "_value",
              "type": "uint208"
            }
          ],
          "internalType": "struct Checkpoints.Checkpoint208",
          "name": "",
          "type": "tuple"
        }
      ],
      "stateMutability": "view",
      "type": "function"
    },
    {
      "inputs": [],
      "name": "clock",
      "outputs": [
        {
          "internalType": "uint48",
          "name": "",
          "type": "uint48"
        }
      ],
      "stateMutability": "view",
      "type": "function"
    },
    {
      "inputs": [],
      "name": "decimals",
      "outputs": [
        {
          "internalType": "uint8",
          "name": "",
          "type": "uint8"
        }
      ],
      "stateMutability": "view",
      "type": "function"
    },
    {
      "inputs": [
        {
          "internalType": "address",
          "name": "delegatee",
          "type": "address"
        }
      ],
      "name": "delegate",
      "outputs": [],
      "stateMutability": "nonpayable",
      "type": "function"
    },
    {
      "inputs": [
        {
          "internalType": "address",
          "name": "delegatee",
          "type": "address"
        },
        {
          "internalType": "uint256",
          "name": "nonce",
          "type": "uint256"
        },
        {
          "internalType": "uint256",
          "name": "expiry",
          "type": "uint256"
        },
        {
          "internalType": "uint8",
          "name": "v",
          "type": "uint8"
        },
        {
          "internalType": "bytes32",
          "name": "r",
          "type": "bytes32"
        },
        {
          "internalType": "bytes32",
          "name": "s",
          "type": "bytes32"
        }
      ],
      "name": "delegateBySig",
      "outputs": [],
      "stateMutability": "nonpayable",
      "type": "function"
    },
    {
      "inputs": [
        {
          "internalType": "address",
          "name": "account",
          "type": "address"
        }
      ],
      "name": "delegates",
      "outputs": [
        {
          "internalType": "address",
          "name": "",
          "type": "address"
        }
      ],
      "stateMutability": "view",
      "type": "function"
    },
    {
      "inputs": [],
      "name": "eip712Domain",
      "outputs": [
        {
          "internalType": "bytes1",
          "name": "fields",
          "type": "bytes1"
        },
        {
          "internalType": "string",
          "name": "name",
          "type": "string"
        },
        {
          "internalType": "string",
          "name": "version",
          "type": "string"
        },
        {
          "internalType": "uint256",
          "name": "chainId",
          "type": "uint256"
        },
        {
          "internalType": "address",
          "name": "verifyingContract",
          "type": "address"
        },
        {
          "internalType": "bytes32",
          "name": "salt",
          "type": "bytes32"
        },
        {
          "internalType": "uint256[]",
          "name": "extensions",
          "type": "uint256[]"
        }
      ],
      "stateMutability": "view",
      "type": "function"
    },
    {
      "inputs": [
        {
          "internalType": "address",
          "name": "token",
          "type": "address"
        },
        {
          "internalType": "uint256",
          "name": "value",
          "type": "uint256"
        }
      ],
      "name": "flashFee",
      "outputs": [
        {
          "internalType": "uint256",
          "name": "",
          "type": "uint256"
        }
      ],
      "stateMutability": "view",
      "type": "function"
    },
    {
      "inputs": [
        {
          "internalType": "contract IERC3156FlashBorrower",
          "name": "receiver",
          "type": "address"
        },
        {
          "internalType": "address",
          "name": "token",
          "type": "address"
        },
        {
          "internalType": "uint256",
          "name": "value",
          "type": "uint256"
        },
        {
          "internalType": "bytes",
          "name": "data",
          "type": "bytes"
        }
      ],
      "name": "flashLoan",
      "outputs": [
        {
          "internalType": "bool",
          "name": "",
          "type": "bool"
        }
      ],
      "stateMutability": "nonpayable",
      "type": "function"
    },
    {
      "inputs": [
        {
          "internalType": "uint256",
          "name": "timepoint",
          "type": "uint256"
        }
      ],
      "name": "getPastTotalSupply",
      "outputs": [
        {
          "internalType": "uint256",
          "name": "",
          "type": "uint256"
        }
      ],
      "stateMutability": "view",
      "type": "function"
    },
    {
      "inputs": [
        {
          "internalType": "address",
          "name": "account",
          "type": "address"
        },
        {
          "internalType": "uint256",
          "name": "timepoint",
          "type": "uint256"
        }
      ],
      "name": "getPastVotes",
      "outputs": [
        {
          "internalType": "uint256",
          "name": "",
          "type": "uint256"
        }
      ],
      "stateMutability": "view",
      "type": "function"
    },
    {
      "inputs": [
        {
          "internalType": "address",
          "name": "account",
          "type": "address"
        }
      ],
      "name": "getVotes",
      "outputs": [
        {
          "internalType": "uint256",
          "name": "",
          "type": "uint256"
        }
      ],
      "stateMutability": "view",
      "type": "function"
    },
    {
      "inputs": [
        {
          "internalType": "address",
          "name": "token",
          "type": "address"
        }
      ],
      "name": "maxFlashLoan",
      "outputs": [
        {
          "internalType": "uint256",
          "name": "",
          "type": "uint256"
        }
      ],
      "stateMutability": "view",
      "type": "function"
    },
    {
      "inputs": [
        {
          "internalType": "address",
          "name": "to",
          "type": "address"
        },
        {
          "internalType": "uint256",
          "name": "amount",
          "type": "uint256"
        }
      ],
      "name": "mint",
      "outputs": [],
      "stateMutability": "nonpayable",
      "type": "function"
    },
    {
      "inputs": [],
      "name": "name",
      "outputs": [
        {
          "internalType": "string",
          "name": "",
          "type": "string"
        }
      ],
      "stateMutability": "view",
      "type": "function"
    },
    {
      "inputs": [
        {
          "internalType": "address",
          "name": "owner",
          "type": "address"
        }
      ],
      "name": "nonces",
      "outputs": [
        {
          "internalType": "uint256",
          "name": "",
          "type": "uint256"
        }
      ],
      "stateMutability": "view",
      "type": "function"
    },
    {
      "inputs": [
        {
          "internalType": "address",
          "name": "account",
          "type": "address"
        }
      ],
      "name": "numCheckpoints",
      "outputs": [
        {
          "internalType": "uint32",
          "name": "",
          "type": "uint32"
        }
      ],
      "stateMutability": "view",
      "type": "function"
    },
    {
      "inputs": [],
      "name": "owner",
      "outputs": [
        {
          "internalType": "address",
          "name": "",
          "type": "address"
        }
      ],
      "stateMutability": "view",
      "type": "function"
    },
    {
      "inputs": [],
      "name": "pause",
      "outputs": [],
      "stateMutability": "nonpayable",
      "type": "function"
    },
    {
      "inputs": [],
      "name": "paused",
      "outputs": [
        {
          "internalType": "bool",
          "name": "",
          "type": "bool"
        }
      ],
      "stateMutability": "view",
      "type": "function"
    },
    {
      "inputs": [
        {
          "internalType": "address",
          "name": "owner",
          "type": "address"
        },
        {
          "internalType": "address",
          "name": "spender",
          "type": "address"
        },
        {
          "internalType": "uint256",
          "name": "value",
          "type": "uint256"
        },
        {
          "internalType": "uint256",
          "name": "deadline",
          "type": "uint256"
        },
        {
          "internalType": "uint8",
          "name": "v",
          "type": "uint8"
        },
        {
          "internalType": "bytes32",
          "name": "r",
          "type": "bytes32"
        },
        {
          "internalType": "bytes32",
          "name": "s",
          "type": "bytes32"
        }
      ],
      "name": "permit",
      "outputs": [],
      "stateMutability": "nonpayable",
      "type": "function"
    },
    {
      "inputs": [],
      "name": "renounceOwnership",
      "outputs": [],
      "stateMutability": "nonpayable",
      "type": "function"
    },
    {
      "inputs": [],
      "name": "symbol",
      "outputs": [
        {
          "internalType": "string",
          "name": "",
          "type": "string"
        }
      ],
      "stateMutability": "view",
      "type": "function"
    },
    {
      "inputs": [],
      "name": "totalSupply",
      "outputs": [
        {
          "internalType": "uint256",
          "name": "",
          "type": "uint256"
        }
      ],
      "stateMutability": "view",
      "type": "function"
    },
    {
      "inputs": [
        {
          "internalType": "address",
          "name": "to",
          "type": "address"
        },
        {
          "internalType": "uint256",
          "name": "value",
          "type": "uint256"
        }
      ],
      "name": "transfer",
      "outputs": [
        {
          "internalType": "bool",
          "name": "",
          "type": "bool"
        }
      ],
      "stateMutability": "nonpayable",
      "type": "function"
    },
    {
      "inputs": [
        {
          "internalType": "address",
          "name": "from",
          "type": "address"
        },
        {
          "internalType": "address",
          "name": "to",
          "type": "address"
        },
        {
          "internalType": "uint256",
          "name": "value",
          "type": "uint256"
        }
      ],
      "name": "transferFrom",
      "outputs": [
        {
          "internalType": "bool",
          "name": "",
          "type": "bool"
        }
      ],
      "stateMutability": "nonpayable",
      "type": "function"
    },
    {
      "inputs": [
        {
          "internalType": "address",
          "name": "newOwner",
          "type": "address"
        }
      ],
      "name": "transferOwnership",
      "outputs": [],
      "stateMutability": "nonpayable",
      "type": "function"
    },
    {
      "inputs": [],
      "name": "unpause",
      "outputs": [],
      "stateMutability": "nonpayable",
      "type": "function"
    }
  ],
  "bytecode": "0x6101606040523480156200001257600080fd5b5060405162002973380380620029738339810160408190526200003591620002a4565b6040518060400160405280600681526020016518de5c195c9d60d21b81525080604051806040016040528060018152602001603160f81b815250836040518060400160405280600681526020016518de5c195c9d60d21b8152506040518060400160405280600481526020016318de5c1d60e21b8152508160039081620000bd91906200037b565b506004620000cc82826200037b565b5050506001600160a01b038116620000ff57604051631e4fbdf760e01b8152600060048201526024015b60405180910390fd5b6200010a81620001d6565b506005805460ff60a01b191690556200012582600662000228565b610120526200013681600762000228565b61014052815160208084019190912060e052815190820120610100524660a052620001c460e05161010051604080517f8b73c3c69bb8fe3d512ecc4cf759cc79239f7b179b0ffacaa9a75d522b39400f60208201529081019290925260608201524660808201523060a082015260009060c00160405160208183030381529060405280519060200120905090565b60805250503060c05250620004bc9050565b600580546001600160a01b038381166001600160a01b0319831681179093556040519116919082907f8be0079c531659141344cd1fd0a4f28419497f9722a3daafe3b4186f6b6457e090600090a35050565b60006020835110156200024857620002408362000261565b90506200025b565b816200025584826200037b565b5060ff90505b92915050565b600080829050601f815111156200028f578260405163305a27a960e01b8152600401620000f6919062000447565b80516200029c8262000497565b179392505050565b600060208284031215620002b757600080fd5b81516001600160a01b0381168114620002cf57600080fd5b9392505050565b634e487b7160e01b600052604160045260246000fd5b600181811c908216806200030157607f821691505b6020821081036200032257634e487b7160e01b600052602260045260246000fd5b50919050565b601f8211156200037657600081815260208120601f850160051c81016020861015620003515750805b601f850160051c820191505b8181101562000372578281556001016200035d565b5050505b505050565b81516001600160401b03811115620003975762000397620002d6565b620003af81620003a88454620002ec565b8462000328565b602080601f831160018114620003e75760008415620003ce5750858301515b600019600386901b1c1916600185901b17855562000372565b600085815260208120601f198616915b828110156200041857888601518255948401946001909101908401620003f7565b5085821015620004375787850151600019600388901b60f8161c191681555b5050505050600190811b01905550565b600060208083528351808285015260005b81811015620004765785810183015185820160400152820162000458565b506000604082860101526040601f19601f8301168501019250505092915050565b80516020808301519190811015620003225760001960209190910360031b1b16919050565b60805160a05160c05160e05161010051610120516101405161245c6200051760003960006111860152600061115901526000610dd101526000610da901526000610d0401526000610d2e01526000610d58015261245c6000f3fe608060405234801561001057600080fd5b50600436106101a15760003560e01c806306fdde03146101a6578063095ea7b3146101c457806318160ddd146101e757806323b872dd146101f9578063313ce5671461020c5780633644e5151461021b5780633a46b1a8146102235780633f4ba83a1461023657806340c10f191461024057806342966c68146102535780634bf5d7e914610266578063587cde1e1461026e5780635c19a95c1461028e5780635c975abb146102a15780635cffe9de146102a9578063613255ab146102bc5780636fcfff45146102cf57806370a08231146102f7578063715018a61461030a57806379cc6790146103125780637ecebe00146103255780638456cb591461033857806384b0196e146103405780638da5cb5b1461035b5780638e539e8c1461036357806391ddadf41461037657806395d89b41146103955780639ab24eb01461039d578063a9059cbb146103b0578063c3cda520146103c3578063d505accf146103d6578063d9d98ce4146103e9578063dd62ed3e146103fc578063f1127ed81461040f578063f2fde38b1461044e575b600080fd5b6101ae610461565b6040516101bb9190611ec5565b60405180910390f35b6101d76101d2366004611eed565b6104f3565b60405190151581526020016101bb565b6002545b6040519081526020016101bb565b6101d7610207366004611f19565b61050d565b604051601281526020016101bb565b6101eb610531565b6101eb610231366004611eed565b610540565b61023e6105bd565b005b61023e61024e366004611eed565b6105cf565b61023e610261366004611f5a565b6105e5565b6101ae6105f2565b61028161027c366004611f73565b61066a565b6040516101bb9190611f90565b61023e61029c366004611f73565b610688565b6101d7610693565b6101d76102b7366004611fa4565b6106a3565b6101eb6102ca366004611f73565b610812565b6102e26102dd366004611f73565b61083a565b60405163ffffffff90911681526020016101bb565b6101eb610305366004611f73565b610845565b61023e610860565b61023e610320366004611eed565b610872565b6101eb610333366004611f73565b610887565b61023e610892565b6103486108a2565b6040516101bb9796959493929190612042565b6102816108e8565b6101eb610371366004611f5a565b6108f7565b61037e610954565b60405165ffffffffffff90911681526020016101bb565b6101ae61095e565b6101eb6103ab366004611f73565b61096d565b6101d76103be366004611eed565b61099d565b61023e6103d13660046120ee565b6109ab565b61023e6103e4366004612148565b610a68565b6101eb6103f7366004611eed565b610b84565b6101eb61040a3660046121b6565b610bbb565b61042261041d3660046121ef565b610be6565b60408051825165ffffffffffff1681526020928301516001600160d01b031692810192909252016101bb565b61023e61045c366004611f73565b610bf8565b60606003805461047090612226565b80601f016020809104026020016040519081016040528092919081815260200182805461049c90612226565b80156104e95780601f106104be576101008083540402835291602001916104e9565b820191906000526020600020905b8154815290600101906020018083116104cc57829003601f168201915b5050505050905090565b600033610501818585610c33565b60019150505b92915050565b60003361051b858285610c45565b610526858585610c98565b506001949350505050565b600061053b610cf7565b905090565b60008061054b610954565b90508065ffffffffffff168310610582578281604051637669fc0f60e11b8152600401610579929190612260565b60405180910390fd5b6105ac61058e84610e22565b6001600160a01b0386166000908152600a6020526040902090610e54565b6001600160d01b0316949350505050565b6105c5610f0a565b6105cd610f3c565b565b6105d7610f0a565b6105e18282610f8b565b5050565b6105ef3382610fc1565b50565b60606105fc610ff7565b65ffffffffffff1661060c610954565b65ffffffffffff1614610632576040516301bfc1c560e61b815260040160405180910390fd5b5060408051808201909152601d81527f6d6f64653d626c6f636b6e756d6265722666726f6d3d64656661756c74000000602082015290565b6001600160a01b039081166000908152600960205260409020541690565b336105e18183611002565b600554600160a01b900460ff1690565b6000806106af86610812565b9050808511156106d55760405163fd9a760960e01b815260048101829052602401610579565b60006106e18787610b84565b90506106ed8887610f8b565b6040516323e30c8b60e01b81527f439148f0bbc682ca079e46d6e2c2f0c1e3b820f1a291b069d8882abf8cf18dd9906001600160a01b038a16906323e30c8b906107459033908c908c9088908d908d90600401612276565b6020604051808303816000875af1158015610764573d6000803e3d6000fd5b505050506040513d601f19601f8201168201806040525081019061078891906122d2565b146107a7578760405162678c5b60e81b81526004016105799190611f90565b60006107bd89306107b8858b612301565b610c45565b8115806107d157506001600160a01b038116155b156107ee576107e9896107e4848a612301565b610fc1565b610803565b6107f88988610fc1565b610803898284610c98565b50600198975050505050505050565b60006001600160a01b038216301461082b576000610507565b60025461050790600019612314565b60006105078261107d565b6001600160a01b031660009081526020819052604090205490565b610868610f0a565b6105cd600061109f565b61087d823383610c45565b6105e18282610fc1565b6000610507826110f1565b61089a610f0a565b6105cd61110f565b6000606080600080600060606108b6611152565b6108be61117f565b60408051600080825260208201909252600f60f81b9b939a50919850469750309650945092509050565b6005546001600160a01b031690565b600080610902610954565b90508065ffffffffffff168310610930578281604051637669fc0f60e11b8152600401610579929190612260565b61094461093c84610e22565b600b90610e54565b6001600160d01b03169392505050565b600061053b610ff7565b60606004805461047090612226565b6001600160a01b0381166000908152600a6020526040812061098e906111ac565b6001600160d01b031692915050565b600033610501818585610c98565b834211156109cf57604051632341d78760e11b815260048101859052602401610579565b604080517fe48329057bfd03d55e49b547132e39cffd9c1820ad7b9d4c5307691425d15adf60208201526001600160a01b038816918101919091526060810186905260808101859052600090610a4990610a419060a001604051602081830303815290604052805190602001206111dc565b858585611209565b9050610a558187611237565b610a5f8188611002565b50505050505050565b83421115610a8c5760405163313c898160e11b815260048101859052602401610579565b60007f6e71edae12b1b97f4d1f60370fef10105fa2faae0126114a169c64845d6126c9888888610abb8c611276565b6040805160208101969096526001600160a01b0394851690860152929091166060840152608083015260a082015260c0810186905260e0016040516020818303038152906040528051906020012090506000610b16826111dc565b90506000610b2682878787611209565b9050896001600160a01b0316816001600160a01b031614610b6d576040516325c0072360e11b81526001600160a01b0380831660048301528b166024820152604401610579565b610b788a8a8a610c33565b50505050505050505050565b60006001600160a01b0383163014610bb15782604051635ad3edc960e11b81526004016105799190611f90565b60005b9392505050565b6001600160a01b03918216600090815260016020908152604080832093909416825291909152205490565b610bee611e68565b610bb48383611299565b610c00610f0a565b6001600160a01b038116610c2a576000604051631e4fbdf760e01b81526004016105799190611f90565b6105ef8161109f565b610c4083838360016112c3565b505050565b6000610c518484610bbb565b90506000198114610c925781811015610c8357828183604051637dc7a0d960e11b815260040161057993929190612327565b610c92848484840360006112c3565b50505050565b6001600160a01b038316610cc2576000604051634b637e8f60e11b81526004016105799190611f90565b6001600160a01b038216610cec57600060405163ec442f0560e01b81526004016105799190611f90565b610c40838383611398565b6000306001600160a01b037f000000000000000000000000000000000000000000000000000000000000000016148015610d5057507f000000000000000000000000000000000000000000000000000000000000000046145b15610d7a57507f000000000000000000000000000000000000000000000000000000000000000090565b61053b604080517f8b73c3c69bb8fe3d512ecc4cf759cc79239f7b179b0ffacaa9a75d522b39400f60208201527f0000000000000000000000000000000000000000000000000000000000000000918101919091527f000000000000000000000000000000000000000000000000000000000000000060608201524660808201523060a082015260009060c00160405160208183030381529060405280519060200120905090565b600065ffffffffffff821115610e50576030826040516306dfcc6560e41b8152600401610579929190612348565b5090565b815460009081816005811115610eb3576000610e6f846113a3565b610e799085612314565b60008881526020902090915081015465ffffffffffff9081169087161015610ea357809150610eb1565b610eae816001612301565b92505b505b6000610ec18787858561148b565b90508015610efc57610ee687610ed8600184612314565b600091825260209091200190565b54600160301b90046001600160d01b0316610eff565b60005b979650505050505050565b33610f136108e8565b6001600160a01b0316146105cd573360405163118cdaa760e01b81526004016105799190611f90565b610f446114ed565b6005805460ff60a01b191690557f5db9ee0a495bf2e6ff9c91a7834c1ba4fdd244a5e8aa4e537bd38aeae4b073aa335b604051610f819190611f90565b60405180910390a1565b6001600160a01b038216610fb557600060405163ec442f0560e01b81526004016105799190611f90565b6105e160008383611398565b6001600160a01b038216610feb576000604051634b637e8f60e11b81526004016105799190611f90565b6105e182600083611398565b600061053b43610e22565b600061100d8361066a565b6001600160a01b0384811660008181526009602052604080822080546001600160a01b031916888616908117909155905194955093928516927f3134e8a2e6d97e929a7e54011ea5485d7d196dd5f0ba4d4ef95803e8e3fc257f9190a4610c40818361107886611512565b61151d565b6001600160a01b0381166000908152600a602052604081205461050790611665565b600580546001600160a01b038381166001600160a01b0319831681179093556040519116919082907f8be0079c531659141344cd1fd0a4f28419497f9722a3daafe3b4186f6b6457e090600090a35050565b6001600160a01b038116600090815260086020526040812054610507565b611117611691565b6005805460ff60a01b1916600160a01b1790557f62e78cea01bee320cd4e420270b5ea74000d11b0c9f74754ebdbfc544b05a258610f743390565b606061053b7f000000000000000000000000000000000000000000000000000000000000000060066116b7565b606061053b7f000000000000000000000000000000000000000000000000000000000000000060076116b7565b80546000908015610bb1576111c683610ed8600184612314565b54600160301b90046001600160d01b0316610bb4565b60006105076111e9610cf7565b8360405161190160f01b8152600281019290925260228201526042902090565b60008060008061121b88888888611762565b92509250925061122b8282611827565b50909695505050505050565b600061124283611276565b9050808214610c40576040516301d4b62360e61b81526001600160a01b038416600482015260248101829052604401610579565b6001600160a01b0316600090815260086020526040902080546001810190915590565b6112a1611e68565b6001600160a01b0383166000908152600a60205260409020610bb490836118e0565b6001600160a01b0384166112ed57600060405163e602df0560e01b81526004016105799190611f90565b6001600160a01b038316611317576000604051634a1406b160e11b81526004016105799190611f90565b6001600160a01b0380851660009081526001602090815260408083209387168352929052208290558015610c9257826001600160a01b0316846001600160a01b03167f8c5be1e5ebec7d5bd14f71427d1e84f3dd0314c0f7b2291e5b200ac8c7c3b9258460405161138a91815260200190565b60405180910390a350505050565b610c40838383611944565b6000816000036113b557506000919050565b600060016113c2846119ab565b901c6001901b905060018184816113db576113db61235b565b048201901c905060018184816113f3576113f361235b565b048201901c9050600181848161140b5761140b61235b565b048201901c905060018184816114235761142361235b565b048201901c9050600181848161143b5761143b61235b565b048201901c905060018184816114535761145361235b565b048201901c9050600181848161146b5761146b61235b565b048201901c9050610bb4818285816114855761148561235b565b04611a3f565b60005b818310156114e55760006114a28484611a55565b60008781526020902090915065ffffffffffff86169082015465ffffffffffff1611156114d1578092506114df565b6114dc816001612301565b93505b5061148e565b509392505050565b6114f5610693565b6105cd57604051638dfc202b60e01b815260040160405180910390fd5b600061050782610845565b816001600160a01b0316836001600160a01b03161415801561153f5750600081115b15610c40576001600160a01b038316156115d5576001600160a01b0383166000908152600a60205260408120819061158290611a7061157d86611a7c565b611aab565b6001600160d01b031691506001600160d01b03169150846001600160a01b031660008051602061240783398151915283836040516115ca929190918252602082015260400190565b60405180910390a250505b6001600160a01b03821615610c40576001600160a01b0382166000908152600a60205260408120819061160e90611ae461157d86611a7c565b6001600160d01b031691506001600160d01b03169150836001600160a01b03166000805160206124078339815191528383604051611656929190918252602082015260400190565b60405180910390a25050505050565b600063ffffffff821115610e50576020826040516306dfcc6560e41b8152600401610579929190612348565b611699610693565b156105cd5760405163d93c066560e01b815260040160405180910390fd5b606060ff83146116d1576116ca83611af0565b9050610507565b8180546116dd90612226565b80601f016020809104026020016040519081016040528092919081815260200182805461170990612226565b80156117565780601f1061172b57610100808354040283529160200191611756565b820191906000526020600020905b81548152906001019060200180831161173957829003601f168201915b50505050509050610507565b600080806fa2a8918ca85bafe22016d0b997e4df60600160ff1b03841115611793575060009150600390508261181d565b604080516000808252602082018084528a905260ff891692820192909252606081018790526080810186905260019060a0016020604051602081039080840390855afa1580156117e7573d6000803e3d6000fd5b5050604051601f1901519150506001600160a01b0381166118135750600092506001915082905061181d565b9250600091508190505b9450945094915050565b600082600381111561183b5761183b612371565b03611844575050565b600182600381111561185857611858612371565b036118765760405163f645eedf60e01b815260040160405180910390fd5b600282600381111561188a5761188a612371565b036118ab5760405163fce698f760e01b815260048101829052602401610579565b60038260038111156118bf576118bf612371565b036105e1576040516335e2f38360e21b815260048101829052602401610579565b6118e8611e68565b826000018263ffffffff168154811061190357611903612387565b60009182526020918290206040805180820190915291015465ffffffffffff81168252600160301b90046001600160d01b0316918101919091529392505050565b61194f838383611b2f565b6001600160a01b0383166119a057600061196860025490565b90506001600160d01b038082111561199d57604051630e58ae9360e11b81526004810183905260248101829052604401610579565b50505b610c40838383611b42565b600080608083901c156119c057608092831c92015b604083901c156119d257604092831c92015b602083901c156119e457602092831c92015b601083901c156119f657601092831c92015b600883901c15611a0857600892831c92015b600483901c15611a1a57600492831c92015b600283901c15611a2c57600292831c92015b600183901c156105075760010192915050565b6000818310611a4e5781610bb4565b5090919050565b6000611a64600284841861239d565b610bb490848416612301565b6000610bb482846123bf565b60006001600160d01b03821115610e505760d0826040516306dfcc6560e41b8152600401610579929190612348565b600080611ad7611ab9610954565b611acf611ac5886111ac565b868863ffffffff16565b879190611ba1565b915091505b935093915050565b6000610bb482846123e6565b60606000611afd83611baf565b604080516020808252818301909252919250600091906020820181803683375050509182525060208101929092525090565b611b37611691565b610c40838383611bd7565b6001600160a01b038316611b6457611b61600b611ae461157d84611a7c565b50505b6001600160a01b038216611b8657611b83600b611a7061157d84611a7c565b50505b610c40611b928461066a565b611b9b8461066a565b8361151d565b600080611ad7858585611cee565b600060ff8216601f81111561050757604051632cd44ac360e21b815260040160405180910390fd5b6001600160a01b038316611c02578060026000828254611bf79190612301565b90915550611c619050565b6001600160a01b03831660009081526020819052604090205481811015611c425783818360405163391434e360e21b815260040161057993929190612327565b6001600160a01b03841660009081526020819052604090209082900390555b6001600160a01b038216611c7d57600280548290039055611c9c565b6001600160a01b03821660009081526020819052604090208054820190555b816001600160a01b0316836001600160a01b03167fddf252ad1be2c89b69c2b068fc378daa952ba7f163c4a11628f55a4df523b3ef83604051611ce191815260200190565b60405180910390a3505050565b825460009081908015611e0d576000611d0c87610ed8600185612314565b60408051808201909152905465ffffffffffff808216808452600160301b9092046001600160d01b031660208401529192509087161015611d6057604051632520601d60e01b815260040160405180910390fd5b805165ffffffffffff808816911603611dac5784611d8388610ed8600186612314565b80546001600160d01b0392909216600160301b0265ffffffffffff909216919091179055611dfd565b6040805180820190915265ffffffffffff80881682526001600160d01b0380881660208085019182528b54600181018d5560008d81529190912094519151909216600160301b029216919091179101555b602001519250839150611adc9050565b50506040805180820190915265ffffffffffff80851682526001600160d01b0380851660208085019182528854600181018a5560008a815291822095519251909316600160301b029190931617920191909155905081611adc565b604080518082019091526000808252602082015290565b6000815180845260005b81811015611ea557602081850181015186830182015201611e89565b506000602082860101526020601f19601f83011685010191505092915050565b602081526000610bb46020830184611e7f565b6001600160a01b03811681146105ef57600080fd5b60008060408385031215611f0057600080fd5b8235611f0b81611ed8565b946020939093013593505050565b600080600060608486031215611f2e57600080fd5b8335611f3981611ed8565b92506020840135611f4981611ed8565b929592945050506040919091013590565b600060208284031215611f6c57600080fd5b5035919050565b600060208284031215611f8557600080fd5b8135610bb481611ed8565b6001600160a01b0391909116815260200190565b600080600080600060808688031215611fbc57600080fd5b8535611fc781611ed8565b94506020860135611fd781611ed8565b93506040860135925060608601356001600160401b0380821115611ffa57600080fd5b818801915088601f83011261200e57600080fd5b81358181111561201d57600080fd5b89602082850101111561202f57600080fd5b9699959850939650602001949392505050565b60ff60f81b881681526000602060e08184015261206260e084018a611e7f565b8381036040850152612074818a611e7f565b606085018990526001600160a01b038816608086015260a0850187905284810360c0860152855180825283870192509083019060005b818110156120c6578351835292840192918401916001016120aa565b50909c9b505050505050505050505050565b803560ff811681146120e957600080fd5b919050565b60008060008060008060c0878903121561210757600080fd5b863561211281611ed8565b9550602087013594506040870135935061212e606088016120d8565b92506080870135915060a087013590509295509295509295565b600080600080600080600060e0888a03121561216357600080fd5b873561216e81611ed8565b9650602088013561217e81611ed8565b9550604088013594506060880135935061219a608089016120d8565b925060a0880135915060c0880135905092959891949750929550565b600080604083850312156121c957600080fd5b82356121d481611ed8565b915060208301356121e481611ed8565b809150509250929050565b6000806040838503121561220257600080fd5b823561220d81611ed8565b9150602083013563ffffffff811681146121e457600080fd5b600181811c9082168061223a57607f821691505b60208210810361225a57634e487b7160e01b600052602260045260246000fd5b50919050565b91825265ffffffffffff16602082015260400190565b6001600160a01b03878116825286166020820152604081018590526060810184905260a06080820181905281018290526000828460c0840137600060c0848401015260c0601f19601f8501168301019050979650505050505050565b6000602082840312156122e457600080fd5b5051919050565b634e487b7160e01b600052601160045260246000fd5b80820180821115610507576105076122eb565b81810381811115610507576105076122eb565b6001600160a01b039390931683526020830191909152604082015260600190565b60ff929092168252602082015260400190565b634e487b7160e01b600052601260045260246000fd5b634e487b7160e01b600052602160045260246000fd5b634e487b7160e01b600052603260045260246000fd5b6000826123ba57634e487b7160e01b600052601260045260246000fd5b500490565b6001600160d01b038281168282160390808211156123df576123df6122eb565b5092915050565b6001600160d01b038181168382160190808211156123df576123df6122eb56fedec2bacdd2f05b59de34da9b523dff8be42e5e38e818c82fdb0bae774387a724a26469706673582212201bb8e6258028b795042d1405770035d28feaf4bc0955f963613f29a3cb996f4d64736f6c63430008140033",
  "linkReferences": {},
  "deployedLinkReferences": {}
}